:100000002FEF0BF00000000000EF00F000000000F8
:0A0010000000000000000000F3D71C
:06001C00000000001200CC
:100022000F0E0C6E470E0D6E0D2EFED70C2EFCD74A
:06003200000000001200B6
:0A003800210E0D6E0D2EFED71200F2
:0E004200026A016A006A086A036A000E120070
:100050000B840BAE33EF00F0010E036E026A016AEF
:0A006000006A0A360232FF0E120099
:08006A000AAE029E000E120016
:100072000B820BAE43EF00F0036802680168006870
:080082000A360232FF0E1200E3
:10008A00000196BF02D0819601D0818696BD02D02A
:10009A00819401D0818496BB02D0819201D0818261
:1000AA0096B902D0819001D081805EB402D0818855
:1000BA0001D08198818AADDF819A96B702D0819664
:1000CA0001D0818696B502D0819401D0818496B3FD
:1000DA0002D0819201D0818296B102D0819001D062
:1000EA0081805EB402D0818801D08198818A91DFB3
:0E00FA00819A5EA402D090DF01D099DF12003F
:10010800086A096A100E0C6E013408360936045064
:10011800085E0550D8A0053C095ED8B007D0045049
:1001280008260550D8B0053C0926D8900036013677
:060138000C2EEAD71200B4
:10013E000CB0E1EF00F00CA287EF01F00E6A000E9A
:10014E000264F8EF00F0F00E0214D8A4C3EF00F032
:10015E00023A01380F0B02260138F00B016E0038FF
:10016E000F0B01260038F00B006E08380F0B00261F
:10017E000838F00B086E0E84D89002BEDCEF00F04B
:10018E0008360036013602360E2A02BEDCEF00F0CB
:10019E0008360036013602360E2A02BEDCEF00F0BB
:1001AE0008360036013602360E2A0E5003647DEFF5
:1001BE0001F0035E0BBC08AE82EF01F0D880800E1A
:1001CE0008640030000E002201220222D8A082EF25
:1001DE0001F0023201320032034A87EF01F082EF62
:1001EE0001F001C002F000C001F008C000F0086A82
:1001FE00000E0E8602642FEF01F0F00E0214D8A44A
:10020E0017EF01F0023A01380F0B02260138F00BFE
:10021E00016E00380F0B01260038F00B006E0E84B5
:10022E00D89002BEDCEF00F00036013602360E2A00
:10023E0002BEDCEF00F00036013602360E2A02BE98
:10024E00DCEF00F00036013602360E2ADCEF00F04D
:10025E0001C002F000C001F0006A000E0E960E887A
:10026E0002645CEF01F0F00E0214D8A447EF01F027
:10027E00023A01380F0B02260138F00B016E0E8484
:10028E00D89002BEDCEF00F0013602360E2A02BE16
:10029E00DCEF00F0013602360E2A02BEDCEF00F073
:1002AE00013602360E2ADCEF00F001C002F0016AC0
:1002BE00000E0E8602648CEF01F0F00E0214D8A42C
:1002CE006BEF01F0023A0E84D89002BEDCEF00F024
:1002DE0002360E2A02BEDCEF00F002360E2A02BEF5
:1002EE00DCEF00F002360E2ADCEF00F0010E0C6E91
:1002FE00A8DE8FEF01F0020E0C6EB0DE8FEF01F074
:10030E00040E0C6EAFDE8FEF01F0080E0C6E92DE57
:02031E001200CB
:10032000025006180E6E086A096A0B6A03500764C9
:1003300083EF02F006500A6E068E028E03500B6E9B
:100340000750036E000E0B64D3EF01F00B50075EF5
:10035000D8B474EF02F0070E076442EF02F0075EB4
:1003600000C008F001C000F002C001F0026A074EB0
:1003700074EF02F0076417EF02F0075E00C008F0A8
:1003800001C000F0016A074E74EF02F00764F5EF58
:1003900001F0075E00C008F0006A074E74EF02F03B
:1003A0000764DCEF01F00AC002F005C001F004C0F0
:1003B00000F0086A9DEF03F0030E0764E7EF01F019
:1003C000075E08380F0B086E074E74EF02F0D890E6
:1003D0000832074E74EF02F0D8900832074E74EFDF
:1003E00002F0D890083274EF02F0030E076406EFB3
:1003F00002F0075E08380F0B086E0038F00B082675
:1004000000380F0B006E074E74EF02F0D8900032E8
:100410000832074E74EF02F0D89000320832074ECF
:1004200074EF02F0D8900032083274EF02F0030E3D
:1004300007642EEF02F0075E08380F0B086E0038D5
:10044000F00B082600380F0B006E0138F00B002669
:1004500001380F0B016E074E74EF02F0D890013295
:1004600000320832074E74EF02F0D89001320032A9
:100470000832074E74EF02F0D89001320032083291
:1004800074EF02F0030E07645FEF02F0075E0838B6
:100490000F0B086E0038F00B082600380F0B006EAB
:1004A0000138F00B002601380F0B016E0238F00BFB
:1004B000012602380F0B026E074E74EF02F0D8903F
:1004C0000232013200320832074E74EF02F0D89047
:1004D0000232013200320832074E74EF02F0D89037
:1004E0000232013200320832096A000E0EAE68EFA5
:1004F00003F0081E001E011E021E082A002201220F
:10050000022268EF03F00750D8A489EF02F09DEFB4
:1005100003F0096A02C00AF0028E068E0750035CDF
:10052000076ED8B45BEF03F0070E076429EF03F002
:10053000075E0450096E0550046E0650056E066A8B
:10054000074E5BEF03F0070E0764FEEF02F0075E55
:100550000450096E0550046E056A074E5BEF03F008
:10056000070E0764DCEF02F0075E0450096E046AB0
:10057000074E5BEF03F0070E0764C3EF02F00AC0FB
:1005800002F09DEF03F0030E0764CEEF02F0075E6A
:1005900009380F0B096E074E5BEF03F0D890093254
:1005A000074E5BEF03F0D8900932074E5BEF03F084
:1005B000D89009325BEF03F0030E0764EDEF02F011
:1005C000075E09380F0B096E0438F00B0926043852
:1005D0000F0B046E074E5BEF03F0D8900432093224
:1005E000074E5BEF03F0D89004320932074E5BEF01
:1005F00003F0D890043209325BEF03F0030E076476
:1006000015EF03F0075E09380F0B096E0438F00B85
:10061000092604380F0B046E0538F00B0426053844
:100620000F0B056E074E5BEF03F0D89005320432D6
:100630000932074E5BEF03F0D890053204320932DD
:10064000074E5BEF03F0D8900532043209325BEFBE
:1006500003F0030E076446EF03F0075E09380F0B43
:10066000096E0438F00B092604380F0B046E0538A8
:10067000F00B042605380F0B056E0638F00B052627
:1006800006380F0B066E074E5BEF03F0D89006326C
:10069000053204320932074E5BEF03F0D890063280
:1006A000053204320932074E5BEF03F0D890063270
:1006B000053204320932086A000E0EAE68EF03F00C
:1006C000091E041E051E061E092A042205220622F2
:1006D000095008260450002205500122065002222B
:1006E0000EBE7FEF03F0D8A08EEF03F0023201328E
:1006F00000320832033E8EEF03F098EF03F0D8B0DB
:1007000093EF03F0000E081E001E011E021E082AB1
:100710000022012202220A7E93EF03F0010E0C6EEA
:100720000EDD9FEF03F0020E0C6E09DD9FEF03F06C
:10073000040E0C6E9EDC9FEF03F0000E0C6E120098
:100740000001936B050E935D0AE293519125E16ED2
:10075000000E9221E26E200EE66E932BF3D793519A
:100760009125E16E000E9221E26EE66A93079351A5
:100770009125946F000E9221956F0A0E046E000E63
:10078000056E8FC000F090C001F0BEDC08C000F024
:1007900009C001F0300E002694C0E1FF95C0E2FFD1
:1007A00000C0E6FF0A0E046E000E056E8FC000F05A
:1007B00090C001F0A9DC00C08FF001C090F0000EE5
:1007C000011802E1000E001801E102D09307CFD713
:0207D000120015
:1007D2000B800BAEF5EF03F0026A0AAEFF0E026E5B
:0C07E200016E006E0A360232FF0E12009B
:1007EE000A6A0350D8A40A800750D8A40A820A5075
:1007FE00D8B45AEF04F0030AD8B413EF04F00AB0D9
:10080E000EEF04F006AE58EF04F056EF04F002AE11
:10081E0056EF04F058EF04F00250800B0A6E029E61
:10082E000650800B069E0A18D8B424EF04F00A5026
:10083E00D8B456EF04F058EF04F00750035CD8B468
:10084E002EEF04F0D8A04AEF04F050EF04F006505B
:10085E00025CD8B438EF04F0D8A04AEF04F050EFA1
:10086E0004F00550015CD8B442EF04F0D8A04AEF72
:10087E0004F050EF04F00450005CD8B45AEF04F0CA
:10088E00D8B050EF04F00A52D8B458EF04F056EF37
:10089E0004F00A52D8B456EF04F058EF04F0D880A2
:0E08AE001200D8901200D880D88412001200D8
:0808BC000B6A0B86FF0E12000F
:1008C4000D6A086A0050D8B4000C04180A6E0ABEF7
:1008D4000D1E0B6A04AE02D0041E042A00AE02D020
:1008E400001E002A005004100A6E0ABE1FD00450D5
:1008F400085E003600340836045008260036060E1A
:100904000C6E00340836045000B0085E00A00826BF
:1009140000360C2EF6D700A008260BB015D00DAE6D
:10092400000C001E002A081E082A000C04AE09D080
:1009340000BE04D00050086E006AF1D7006A002A95
:10094400000C001E0B2AD3D7082A0450085CD8A434
:0E095400E6D7086A002A00AEE2D7FF0C1200B8
:0C0962000E0E0D6E0D2EFED700001200D0
:10096E000C6A0E6A0250D8A4D0EF04F001C002F057
:10097E0000C001F0006A0E860250D8A4D0EF04F039
:10098E0001C002F0016A0E960E880250D8B4E2EF52
:10099E0004F00E50035ED8A4D8A0E8EF04F0D8906F
:1009AE0002BEEEEF04F0003601360236032ED7EF0C
:1009BE0004F0E8EF04F0010E0C6E21EC00F0F2EF03
:1009CE0004F0020E0C6E28EC00F0F2EF04F0040EB0
:0809DE000C6E35EC00F0120074
:0E09E6005E948FC096F045EC00F05E84120027
:1009F4008FC004F090C005F004C002F005C003F0FD
:100A0400044A052A91C000F092C001F00001914B04
:100A1400922B00C0E9FF01C0EAFF02C0E1FF03C05E
:100A2400E2FFEECFE6FF02C0E9FF03C0EAFFEE52A9
:0E0A340001E0E2D78FC000F090C001F0120088
:100A42000B6A0A6A096A00500402F4CF09F0F3CF74
:100A520008F001500502F4CF0BF0F3CF0AF000507A
:100A62000502F3500926F4500A22E86A0B220150CB
:100A72000402F3500926F4500A22E86A0B2208C045
:100A820000F009C001F00AC002F00BC003F012002E
:100A9200086A096A000E07620364CEEF05F002508D
:100AA20006180A6E075003267E0ED8A05FEF05F0E7
:100AB200035ED8B0D3EF05F063EF05F0035ED8A074
:100AC200D8EF05F0028E068E02C00EF001C00BF0C8
:100AD20000C00DF000500402F4CF0CF001500502EA
:100AE200F4CF00F0F3CF08F00402F3500C26F450D8
:100AF2000822000E00220D500502F3500C26F4507D
:100B02000822000E002202500402F3500826F4507C
:100B1200002202500502016A000E0122F350002653
:100B2200F45001220D500602F3500826F450002220
:100B3200026A000E012202220B500602F350002626
:100B4200F4500122000E02220E500602F35001263A
:100B5200F450022202BEB6EF05F008360036013626
:100B620002360306D8B4D8EF05F0C9EF05F0D880F5
:100B7200800E08640030000E002201220222D8A05A
:100B8200C9EF05F0023201320032034AD3EF05F019
:100B92000AAE029E000EDBEF05F0010E21EC00F022
:100BA200DBEF05F0020E39EC00F0DBEF05F0040E8E
:060BB20028EC00F0120027
:0E0BB800ACB202D00000FCD78FC0ADFF12001F
:100BC600C26A491C006E0050C1160F0EC012C08EBC
:100BD6005FC000F000360090003600900050C21250
:100BE600C280BCDEC282C2A201D0FDD7C4CF01F052
:100BF600006A00C083F001C084F0C3500012000EEA
:100C0600011200C083F001C084F0C290000E0014EF
:100C1600026E0150800B036E000E031802E1000EF7
:100C2600021803E00001836B846B83C000F084C06C
:040C360001F01200B7
:100C3A00939A93989390939293949396819A819886
:100C4A00819681948192819011EC00F011EC00F070
:100C5A0011EC00F081828180818A0EEC00F0819A89
:100C6A0011EC00F0818A0EEC00F0819A11EC00F090
:100C7A00818A0EEC00F0819A11EC00F08190818A51
:100C8A000EEC00F0819A11EC00F0818A0EEC00F073
:100C9A00819A81928186818A0EEC00F0819A11EC08
:100CAA0000F081968180818A0EEC00F0819A819011
:100CBA00818A0EEC00F0819A11EC00F0818A0EEC28
:100CCA0000F0819A8180818A0EEC00F0819A11EC01
:100CDA0000F08190818A0EEC00F0819A81868184ED
:100CEA0081828180818A0EEC00F0819A11EC00F0F9
:040CFA005E84120002
:100CFE00B80E00016B6F0B0E6C6F8F0E6D6F000ECA
:100D0E006E6FFF0E776FFF0E786F000E796F000E0D
:100D1E007A6FFF0E736FFF0E746F000E756F000EFD
:100D2E00766FFF0E6F6FFF0E706F000E716F000EFD
:100D3E00726FAC8A900EAB6E948E949C9EAA03D06A
:080D4E00AECF00F0FBD712004C
:100D56000900F5CFE6FF0006FBE10106F9E1120006
:100D6600BB50010F006E016A000E01225FC004F045
:100D7600000E056E63DE060E026E00C004F001C0B2
:100D860005F0025005E005320432059EFF0FFAD742
:100D9600040E016E04C000F0015004E0003600901D
:100DA600FF0FFBD7300E0014036E04C000F005C021
:100DB60001F001320032019E01320032019E00C074
:0C0DC600BEFF0F0EBD160350BD12120040
:0A0DD2009494BA840C0EBD121200B6
:080DDC00BE6ABD98BD9A120029
:100DE40010D0800E0001836F1AD0C00E836F17D00D
:100DF400940E836F14D0D40E836F11D0800E836F42
:100E04000ED000018351010AECE08351020AEDE0A7
:100E14008351030AEDE08351040AEDE0EFD7840522
:100E2400006E8351002600C083F000C096F045ECAC
:100E340000F05E945F6A5F508525E96E000E86219E
:100E4400EA6EEE520BE05F508525E96E000E8621B6
:100E5400EA6EEECF8FF0C5DD5F2AEDD75E84120017
:100E64000B6A0C6A0A6A0350D8B47CEF07F0028E4E
:100E74008E0E035E03BE44EF07F0D8B444EF07F0D0
:100E840080EF07F0036C080E035CD8A05BEF07F05B
:100E9400036E013602C001F0026A080E035CD8A09A
:100EA4005BEF07F00136016A0350D8A4D89065EFD0
:100EB40007F00350D8B465EF07F0D890023201323E
:100EC400032E5FEF07F00BBC01A072EF07F0D8A070
:100ED40072EF07F0012AD8B4022A02BE8FEF07F09E
:100EE4000AAE94EF07F0021E011E012AD8B4022AAA
:100EF40094EF07F0026A016A94EF07F00B800BAEDF
:100F040098EF07F0026A0AAE98EF07F0FF0E026E40
:100F1400016E0A36023298EF07F0010E0C6E57DCB0
:100F24009AEF07F0000E0C6E9AEF07F0FF0E0C6EAE
:0A0F34000150006E0250016E120021
:100F3E0000018D6B8E6B83C089F084C08AF085C0F2
:100F4E008BF086C08CF08C51FF0A08E18B51FF0AA2
:100F5E0005E18A51FF0A02E18951FF0A0CE187C0BF
:100F6E008FF088C090F0450E916F000E926F3BDDB2
:100F7E00030E006EEDD1010E5F6E8BAF0ED0800EA4
:100F8E008B19006E00C08BF05F2A87C0E1FF88C00E
:100F9E00E2FF2D0EE66E874B882B000E006E8C192D
:100FAE0008E100508B1905E100508A1902E18951C0
:100FBE00000A0BE187C08FF088C090F0430E916F4E
:100FCE00000E926F10DD006AC3D18C51FF0A08E14A
:100FDE008B51000A05E18A51000A02E18951000A8B
:100FEE000CE187C08FF088C090F0240E916F000E38
:100FFE00926FF9DC5FC000F0ABD1000E046E000EF4
:10100E00056E000E066E7F0E076E89C000F08AC058
:10101E0001F08BC002F08CC003F0F7EC03F0010E70
:10102E00D8B0000E006E00521BE089C000F08AC0DE
:10103E0001F08BC002F08CC003F0000E046E000EA7
:10104E00056E200E066E820E076E1CDD00C089F046
:10105E0001C08AF002C08BF003C08CF08E07CDD792
:10106E00000E046E000E056E200E066E820E076ECA
:10107E0089C000F08AC001F08BC002F08CC003F072
:10108E00F7EC03F0000ED8B0010E006E00521BE01C
:10109E0089C000F08AC001F08BC002F08CC003F052
:1010AE00CD0E046ECC0E056E4C0E066E7B0E076ECC
:1010BE00E9DC00C089F001C08AF002C08BF003C0E9
:1010CE008CF08E2BCDD7FF0E8915086EFF0E8A156C
:1010DE00096E7F0E8B150A6E000E8C150B6E08C0F6
:1010EE0004F009C005F00AC006F00BC007F0043684
:1010FE000490053606360736000E8915006E000E72
:10110E008A15016E000E8B15026EFF0E8C15036E86
:10111E0000C089F001C08AF002C08BF003C08CF0D1
:10112E0004508911006E05508A11016E06508B1104
:10113E00026E07508C11036E00C089F001C08AF058
:10114E0002C08BF003C08CF07F0E8C5D006E00C071
:10115E0060F0010E8C6F00C004F089C000F08AC0F0
:10116E0001F08BC002F08CC003F0045007E0003693
:10117E000090013602360336FF0FF8D700C089F013
:10118E0001C08AF002C08BF003C08CF087C0E1FF73
:10119E0088C0E2FF8C51300FE66E874B882B800E95
:1011AE008E19006E800E010A005C08E3800E060A9E
:1011BE00006E800E8E19005C01E30AD087C0E1FF3D
:1011CE0088C0E2FF2E0EE66E874B882B010E8D6FC8
:1011DE00060E606F6051000A54E08C6B89C000F0FF
:1011EE008AC001F08BC002F08CC003F00036009074
:1011FE0001360236033600360090013602360336CB
:10120E00895100268A5101228B5102228C510322D0
:10121E0000C089F001C08AF002C08BF003C08CF0D0
:10122E0089C000F08AC001F08BC002F08CC003F0C0
:10123E000036009001360236033600C089F001C038
:10124E008AF002C08BF003C08CF087C0E1FF88C02B
:10125E00E2FF8C51300FE66E874B882B8D51000AC2
:10126E000EE18E078E51000A0AE187C0E1FF88C0A9
:10127E00E2FF2E0EE66E874B882B010E8D6F6007F8
:10128E00A9D7FF0E8725E96EFF0E8821EA6EEE5074
:10129E00300A05E1010E875F000E885BF2D7FF0E64
:1012AE008725E96EFF0E8821EA6EEE502E0A04E1C4
:1012BE00010E875F000E885B8E51000A43E087C0E7
:1012CE00E1FF88C0E2FF650EE66E874B882B800E2D
:1012DE008E19006E800E000A005C0BE287C0E1FFE3
:1012EE0088C0E2FF2D0EE66E874B882B8E510008CC
:1012FE008E6F8EC060F0800E090A006E800E8E1901
:10130E00005C0FE20A0E046E60C000F062EC04F0A6
:10131E0087C0E1FF88C0E2FF0050300FE66E874BBA
:10132E00882B0A0E046E60C000F062EC04F008C058
:10133E0000F087C0E1FF88C0E2FF0050300FE66E7C
:10134E00874B882B87C0E1FF88C0E2FFE66A006A00
:02135E0012007B
:101360000001896B8A6B83C08BF084C08CF0800E87
:101370008419006E800E005C02E1000E835D0BE2BA
:10138000010E896F000E8A6F835100088B6F84C035
:101390008CF0000E8C578BC08FF08CC090F085C005
:1013A00091F086C092F0A0EC03F0060E876F000E5D
:1013B000886F000E006E8851005C02E187510008C2
:1013C00019E287518525E16E88518621E26E010E72
:1013D000875D006E000E8859016E00508525E96E0C
:1013E00001508621EA6EEECFE6FF010E875F000E08
:1013F000885BDFD785C0E1FF86C0E2FF200EE66E86
:1014000089518A111AE0876B886B87518525E96EAF
:1014100088518621EA6EEE50200A03E1874B882B23
:10142000F4D7010E875F000E885B87518525E16E3A
:0C14300088518621E26E2D0EE66E12003F
:10143C00A6A202D00000FCD7A69C83C0A9FF84C042
:10144C00A8FFA69EA684F2CF00F0F29E550EA76EC2
:10145C00AA0EA76EA68200BE02D0F29E01D0F28E1A
:0E146C00A694A1B802D00000FCD7A1981200EF
:10147A000450000A12E10550000A0FE10650000A62
:10148A000CE10750000A09E1FF0E006EFF0E016E23
:10149A007F0E026EFF0E036EA8D0086A096A075013
:1014AA00D8B4E8EF0AF00350D8B4EDEF0AF00250CE
:1014BA0006180A6E028E068E0E6A02C008F001C075
:1014CA000CF000C00DF004500D5E0550D8A0053C8C
:1014DA000C5E0650D8A0063C085E086A0C6A0D6AC3
:1014EA00D8A07FEF0AF0D8900232013200320832D7
:1014FA00010E0E6E0750035ED8A08CEF0AF07E0E26
:10150A000E240326D8B0F2EF0AF092EF0AF07E0E0C
:10151A000E240326D8A0F7EF0AF0180E0B6E0D362C
:10152A000C3608360036013602360E360450005E96
:10153A000550D8A0053C015E0650D8A0063C025EC4
:10154A0006340E120EA0ADEF0AF00D80B8EF0AF0C5
:10155A00045000260550D8B0053C01260650D8B0E4
:10156A00062802260D900B2E94EF0AF0DEEF0AF001
:10157A00D8900036013602360E360450005E055009
:10158A00D8A0053C015E0650D8A0063C025E06348F
:10159A000E10010B0D26D8B00C2AD8B4082AD8A4EC
:1015AA00DEEF0AF008320C320D32032AD8B4F2EF19
:1015BA000AF00AAE089E0850026E0C50016E0D50D9
:1015CA00006EFAEF0AF0010E5EEC04F0FAEF0AF090
:1015DA00020E21EC00F0FAEF0AF0040E39EC00F0EA
:0C15EA00FAEF0AF0080E28EC00F01200E6
:1015F6000050086E0150006E016A026A036A0B6AA7
:101606000C6A960E036E0A6A00C001F008C000F06C
:0A161600086A026AB7EC04F0120043
:101620000001606B83C0E9FF84C0EAFFEECF5FF08A
:101630005F50000A0FE05FC08FF0DCEC05F00001A6
:10164000602B60518325E96E000E8421EA6EEECF97
:061650005FF0EED712006E
:08165600067E90EC01F0120089
:10165E000BEC0DF0030E0F01386F396BFF0E926E0F
:10166E00FF0E936EC00E946E956A5E925E90B88673
:10167E00B06A220EAF6EAC847FEC06F0020E0B6EDB
:10168E00040E0C6EBA0E0D6E0D2EFED70C2EFCD760
:10169E000B2EFAD700001DEC06F0820E0C6EDD0E3E
:1016AE000D6E0D2EFED70C2EFCD700000000010E85
:1016BE00966F45EC00F00C0E966F45EC00F0BA807C
:1016CE00BA92630EBB6EEEEC06F0E9EC06F05F6AC2
:1016DE00B3EC06F05F6AE3EC05F000C05CF001C00D
:1016EE005DF0010E5F6EE3EC05F000C081F001C00D
:1016FE0082F081C069F082C06AF05CC000F05DC00B
:10170E0001F072DF000E046E000E056E700E066E96
:10171E00840E076E49EC05F0000E046EC00E056EC9
:10172E007F0E066E880E076EA1DE00C07DF001C032
:10173E007EF002C07FF003C080F07DC065F07EC0F9
:10174E0066F07FC067F080C068F081C000F082C094
:10175E0001F04ADF000E046E000E056E180E066EC6
:10176E00830E076E49EC05F0000E046EC00E056E7A
:10177E007F0E066E880E076E79DE000E046E000E6A
:10178E00056E000E066E7F0E076E90EC01F000C027
:10179E0061F001C062F002C063F003C064F07DC06E
:1017AE0004F07EC005F07FC006F080C007F0F7ECB5
:1017BE0003F0010ED8B0000E006E00522EE061C094
:1017CE0004F062C005F063C006F064C007F065C0A7
:1017DE0000F066C001F067C002F068C003F034DFAD
:1017EE00000E046E000E056E200E066E820E076E43
:1017FE0049EC05F032EC07F000C05AF001C05BF086
:10180E00000E026E0150025C02E10050FF0804E27D
:10181E00FF0E5A6E000E5B6E02D05A6A5B6A5AC099
:10182E005FF0B3EC06F0010E0001836F010E846FC2
:10183E00150E856F000E866FF2EC06F065C083F014
:10184E0066C084F067C085F068C086F04A0E876F68
:10185E00000E886F9FEC07F0010E836F030E846FEE
:10186E004A0E856F000E866FF2EC06F0010E836F46
:10187E000B0E846F210E856F000E866FF2EC06F054
:10188E0061C083F062C084F063C085F064C086F0EE
:10189E004A0E876F000E886F9FEC07F0010E836F64
:1018AE000D0E846F4A0E856F000E866FF2EC06F0F9
:1018BE00020E836F010E846F1C0E856F000E866FF5
:1018CE00F2EC06F05AC083F05BC084F04A0E856FCE
:1018DE00000E866F3EDD020E836F060E846F4A0E7B
:1018EE00856F000E866FF2EC06F065C004F066C0E0
:1018FE0005F067C006F068C007F061C000F062C076
:10190E0001F063C002F064C003F0F7EC03F0010EC7
:10191E00D8B0000E006E00520BE0020E836F0C0E5C
:10192E00846F180E856F000E866FF2EC06F00AD0EB
:10193E00020E836F0C0E846F3F0E856F000E866F46
:10194E00F2EC06F081AC33D05EB231D05E8269C06B
:10195E007BF06AC07CF0836B6AC000F0016A00C045
:10196E0084F065DD010E0001836FFF0E7B15846F21
:10197E005EDD280E0001836F000E846F4ADE7BC091
:10198E008FF07CC090F04A0E916F000E926FA0EC1B
:10199E0003F04A0E836F000E846F3BDE0D0E8F6FC9
:1019AE00DCEC05F00A0E00018F6FDCEC05F081AC6B
:1019BE005E92040E0B6E0C0E0C6E330E0D6E0D2E13
:1019CE00FED70C2EFCD70B2EFAD70000000082D6C5
:0219DE00FFD731
:101A160010EE15F0350E006E010E016EE00EF66E3C
:0E1A2600190EF76E000EF86EABEC06F0120013
:0319E000543A0076
:0419E300204F4E0043
:0519E70050574D3A00CD
:0319EC00443A007A
:0419EF00494E460017
:1019F3003E3E20534555494C20534155564547419A
:071A0300524445203D200084
:041A0A004F464600FD
:021A0E003000A6
:041A10004E614E00D5
:011A14000FC2
:020000040030CA
:0D000100231F3CFFBF81FF0FC00FE00F4029
:00000001FF
